:020000040002F8
:10600000905D0020C1630200C9630200CB630200FF
:10601000CD630200CF630200D163020000000000E4
:10602000000000000000000000000000D363020038
:10603000D563020000000000D7630200D9630200AC
:106040007D690200DB630200596F0200DB6302001E
:10605000DB630200DB6302009D660200DB6302007B
:10606000DB630200DB630200DB630200DB63020030
:10607000DB630200DB630200DB630200DB63020020
:10608000DB630200D5690200DB630200DB63020010
:10609000596A0200DB6302005D6A0200DB630200F2
:1060A000DB630200DB630200DB630200DB630200F0
:1060B000DB630200DB630200000000000000000060
:1060C000DB630200DB630200DB630200DB630200D0
:1060D000DB630200DB630200DB6302000000000000
:1060E00000000000000000000000000000000000B0
:1060F00000000000000000000000000000000000A0
:10610000000000000000000000000000000000008F
:10611000000000000000000000000000000000007F
:10612000000000000000000000000000000000006F
:10613000000000000000000000000000000000005F
:10614000000000000000000000000000000000004F
:10615000000000000000000000000000000000003F
:10616000000000000000000000000000000000002F
:10617000000000000000000000000000000000001F
:10618000000000000000000000000000000000000F
:1061900000000000000000000000000000000000FF
:1061A00000000000000000000000000000000000EF
:1061B00000000000000000000000000000000000DF
:1061C00000000000000000000000000000000000CF
:1061D00000000000000000000000000000000000BF
:1061E00000000000000000000000000000000000AF
:1061F000000000000000000000000000000000009F
:10620000DFF80CD000F084F9004800471DB9020007
:10621000905D002030B450E8012F93B2C48923442C
:106220008489A34228BF1B1B0489A34202BFBFF37A
:106230002F8F002007E0C3EA020340E80134002C5E
:10624000E9D14FF001000A6030BC704750E8012FDF
:10625000C2EA024240E801210029F7D1704730B478
:1062600050E8022F1FFAA2F3C488A34202BFBFF373
:106270002F8F00200DE0C48923448489A34228BFC6
:106280001B1BC2EA034340E80234002CE8D14FF064
:1062900001000A6030BC704750E8022FC2EA224277
:1062A00040E802210029F7D17047034653E8022F46
:1062B000D988B2EB324F4FF0000017BF92B241EADB
:1062C000014142EA014104E05A68B2EB324F08BF93
:1062D000012043E80212002AE8D1704730B4044696
:1062E00054E8000F0D4644E80053002BF8D1156028
:1062F00030BC704730B4044654E8000F40EA010552
:1063000044E80053002BF7D1156030BC704730B41F
:10631000044654E8000F00EA010544E80053002B4E
:10632000F7D1156030BC704730B4044654E8000F14
:1063300080EA010544E80053002BF7D1156030BC1A
:10634000704730B4044654E8000F00EB010544E800
:106350000053002BF7D1156030BC704730B40446B1
:1063600054E8000FA0EB010544E80053002BF7D1DF
:10637000156030BC704770B404464FF0000054E81C
:10638000006F0D68AE4207BF44E80023012044E8D7
:1063900000630E60002B1CBF0020F0E770BC70474C
:1063A00030B4044654E8000F88422CBF451A054615
:1063B00044E80053002BF5D1156030BC7047000055
:1063C0000648804706480047FEE7FEE7FEE7FEE78F
:1063D000FEE7FEE7FEE7FEE7FEE7FEE73D6C0200B4
:1063E000016202002DE9F05F0546002092469B46BF
:1063F00088460646814640241BE0284641464746DB
:10640000224600F074F853465A46C01A914110D300
:1064100011461846224600F016F82D1A67EB0108BF
:106420004F4622460120002100F00DF817EB00092D
:106430004E41201EA4F10104DFDC484631462A46C5
:106440004346BDE8F09F202A04DB203A00FA02F11F
:10645000002070479140C2F1200320FA03F3194352
:106460009040704700487047301D030040EA010328
:106470009B0703D009E008C9121F08C0042AFAD2FA
:1064800003E011F8013B00F8013B521EF9D27047BE
:10649000D2B201E000F8012B491EFBD27047002266
:1064A000F6E710B513460A4604461946FFF7F0FF13
:1064B000204610BD421C10F8011B0029FBD1801A98
:1064C000704730B504460020034600E05B1C934251
:1064D00003D2E05CCD5C401BF8D030BD034611F820
:1064E000012B00F8012B002AF9D118467047202A09
:1064F00004DB203A21FA02F00021704721FA02F36E
:10650000D040C2F120029140084319467047000074
:10651000064C074D06E0E06840F0010394E80700F0
:1065200098471034AC42F6D3FFF76EFEBC2403004C
:10653000DC24030070B58C1810F8015B15F007031C
:1065400001D110F8013B2A1106D110F8012B03E00C
:1065500010F8016B01F8016B5B1EF9D12B0705D414
:106560000023521E0DD401F8013BFAE710F8013B5D
:10657000CB1A921C03E013F8015B01F8015B521E79
:10658000F9D5A142D8D3002070BD0000124810B543
:10659000027AC1798A421ED00172012913D00229E0
:1065A00015D0032917D14089A0F57F41FF3912D1B9
:1065B0000A4801F0D3FD08280DD000280BD0BDE813
:1065C000104000F067BFBDE8104000F055B8BDE8CE
:1065D000104003F061BA10BD20220020A82D002039
:1065E00070B505464FF6FF7000224AF201040EE036
:1065F000AB5C58400023C60702D084EA500000E09C
:1066000040085B1CDBB2082BF5D3521C92B28A42C5
:10661000EED370BD70B5164D164CA978E08A491DB1
:1066200081421AD1801E81B22846FFF7D9FFE18A44
:10663000294431F8021C49BA91EA000F0DD1A5F2A4
:106640007920818861820021E1706978012908D070
:10665000012121718088608370BD208B401C2083C4
:1066600070BD00F0D7F8BDE8704000F09DBC0000A0
:10667000792900202022002007484089A0F57F4189
:10668000FF3907D0132176DF082803D0002801D076
:1066900000F000BF70470000202200202DE9F047E5
:1066A00000268AB0DFF85091B0464FF4807501247F
:1066B00037460696284606F025FA38B1D9F804037D
:1066C000204203D0284606F013FA26432D1D64000D
:1066D0007F1CADB2082FEDD34FF4BE74204606F0F8
:1066E00011FA48B1204606F003FA46F0004606AA21
:1066F0000121002006F0E8F9404D16F0FF0F15D0FB
:106700000127002437420DD009EB8401D1F8100590
:10671000D1F81015C0F3042055F82420C1F301412D
:1067200002B190477F00641C082CEBD3002E5FDA87
:106730004FF0FF30CDF8108054E0281910F8507F4A
:1067400090F9000027F0C008401C3BD007A9404644
:1067500005F0F9FB10B34FEA9719404602F066FFC7
:1067600055F820701FB1B9F1030F03D006E0B9F15D
:10677000030F27D104A9404605F0EDFB4FF0A041DF
:1067800001EB8800D0F8000706A9C0F3014A404693
:1067900005F0D9FB18B1BAF1020F03D012E0BAF13B
:1067A000030F0FD1B9F1030F08D1BAF1020F1DD0B9
:1067B0000221404606F06CF9761CF6B217B1494644
:1067C0004046B847641C042CB7D3002E10D06A464C
:1067D0000121002006F078F906990098884207D038
:1067E00006900498002634460790A6E70321E0E7C8
:1067F0000AB0BDE8F087000000600040543200207D
:10680000884204D94EF66022101A084400E0081AA3
:1068100080B2704770B51D481D4D00F59674C17863
:1068200001F00F02EA710909A971002182780B4673
:10683000521E8A4203DD46183679665400E06354DE
:10684000491CC9B20E29F4D3124E207831788842FF
:1068500010D00F4902220C310A7048700C481146C2
:106860000C3004F069F918B1687940F002006871E1
:10687000207830700D22711C601CFFF722FE00286A
:1068800003D0BDE8704000F0F9B870BD7929002050
:1068900020220020B32A002010B50A4C6079C007DE
:1068A00001D000F0EBF8607980070AD50548022195
:1068B0000C3004F041F9002803D1607920F0020087
:1068C000607110BD2022002070B5114B114C187959
:1068D00038B1A188588BFFF793FF0A2801D3002015
:1068E000187118795978084311D1094D597A28350A
:1068F000287888420BD02188D889FFF781FF0528A6
:1069000005D928785872BDE8704000F04DBB70BDC5
:10691000202200200027002000F01F0201219140CA
:106920004009800000F1E020C0F88012704700F0BC
:106930001F02012191404009800000F1E020C0F8D1
:106940000011704700F01F020121914040098000B2
:1069500000F1E020C0F8001270474907090E002836
:1069600006DA00F00F0000F1E02080F8141D7047F7
:1069700000F1E02080F800147047000070B54FF47B
:106980008076304605F01EFC114CB50560B13046EE
:1069900005F01FFC0120C5F80803607920B901202B
:1069A00060712168002088474FF48276304605F0F8
:1069B00009FC00280AD0304605F00BFC0220C5F87F
:1069C00008032168BDE870400120084770BD000041
:1069D0002425002007480021C0F84011C0F84411C8
:1069E000C0F84811C0F84C11C0F80011C0F80411EB
:1069F0000AF06CB90010014000F010BB70B50E46F3
:106A0000144900EB400001EBC0051446E86A183554
:106A100020B101280FD0022805D113E0284600F04C
:106A200031FBA04201D2002411E022463146284623
:106A300000F060FB0BE0284600F024FBA042F4D2FB
:106A40000446F2E73146284600F027FB044620467C
:106A500070BD0000083B00200AF086B810B5002188
:106A6000054A084600F04AFD002803D0BDE8104062
:106A700000F010BD10BD0000797A02002DE9F05F32
:106A80003E49002601F10E03487893F801C03546CF
:106A900037463446324680EA0C0C4FF0010900BFFD
:106AA0002CFA02F85FEAC87805D0761CF6B217B95E
:106AB00009FA02F7FFB2521CD2B2082AF0D3002220
:106AC00001EB020C03EB02089CF802C098F802806C
:106AD000C44502D06D1CEDB21446521CD2B20C2A31
:106AE000EED3CC46DFF8989082464FF0000B89F841
:106AF00000C089F80100A9F1120000F5607289F860
:106B000002B0D2F827C0C0F815C0D2F82BC0C0F828
:106B100019C0D2F82F20C0F81D200D229846581C0D
:106B2000491CFFF7A3FC5DB17019012813D909EBCB
:106B3000040181F803B008EB040181F802B00AE017
:106B4000012E08D92AEA070089F8010098F80110F7
:106B5000B94388F801100F21094803F0EDFF0949F6
:106B600010B97019012803D9487940F0010002E0FA
:106B7000487920F001004871BDE8F09FA52A002067
:106B8000122700202022002070B52B480188491CC4
:106B9000018001880A24B1FBF4F204FB12110029E0
:106BA00048D102884EF6602100238A4200D3038038
:106BB0004288521C4280012202734588B5FBF4F6DC
:106BC00004FB1655002D35D145888D4200D34380F6
:106BD00085886D1C858042738588B5FBF4F604FBBF
:106BE0001654002C26D184888C4200D38380C4881C
:106BF000641CC4808273C5883C24B5FBF4F604FB96
:106C00001655002D16D1C5888D4200D3C380058945
:106C10006D1C0581C2730589B5FBF4F604FB16549F
:106C2000002C07D104898C4200D303814189491C7F
:106C30004181027470BD000000270020F0B5B54806
:106C40000023021D0178101D01254FF080540629F4
:106C50000BD11678360708D10678C6F30316032E33
:106C600006D0042E04D0052E02D0062907D00EE04F
:106C7000B4F82463A84FC6F304263E6002E01678F9
:106C8000360704D10678C6F30316032E02D0062970
:106C900004D00FE0A24FA14E7E670EE016783607B3
:106CA00008D10678C6F30316032E06D0042E04D0AE
:106CB000052E02D0062907D00EE0D4F84462994F81
:106CC000C6F342363E6002E01678360704D10678F5
:106CD000C6F30316032E02D0062906D011E0924E09
:106CE000376827F0807737600EE01678360708D1CE
:106CF0000678C6F30316032E06D0042E04D0052E04
:106D000002D006290AD011E04FF08046C6F80C31B7
:106D1000C6F81031834E361F336002E0167836070E
:106D200004D10678C6F30316032E02D0062905D037
:106D30000CE07C4F032664373E600AE01678360785
:106D400004D10678C6F30316032E02D006290DD00F
:106D500014E0764F05263E60744E78363560734EEB
:106D6000083633603F263F1D3E6002E01678360746
:106D700004D10678C6F30316052E02D0062957D093
:106D800062E06B4E36686B4F3E60694E361D36686A
:106D90003F1D3E60664E083636683F1D3E60644EBD
:106DA0000C3636683F1D3E60614E103636683F1D1A
:106DB0003E605F4E143636683F1D3E605C4E1836AE
:106DC00036685C4F20373E60594E1C3636683F1D92
:106DD0003E60574E203636683F1D3E60544E243686
:106DE00036683F1D3E60524E283636683F1D3E6075
:106DF0004F4E2C3636683F1D3E604D4E303636685D
:106E00004C4F40373E604A4E343636683F1D3E6038
:106E1000474E383636683F1D3E60454E3C36366834
:106E20003F1D3E60424E403636683F1D3E6002E0E8
:106E30001678360708D10678C6F30316032E06D057
:106E4000042E04D0052E02D0062907D019E0D4F86C
:106E50005812394A01F04F01116002E01178090718
:106E60000FD10078C0F30310032803D0042801D009
:106E7000052806D131480168C90702D06FF0010129
:106E80000160D4F83001062808D1D4F8340106286E
:106E900004D12B48016841F48061016022487438B4
:106EA000016841F470010160BFF34F8FBFF36F8F32
:106EB0004FF01021D1F80002002803DBD1F80402C2
:106EC000002822DA1F4A15601F480468002CFCD0F5
:106ED0001524C1F800420568002DFCD0C1F8044219
:106EE00001680029FCD0136001680029FCD0BFF3C1
:106EF0004F8F0D48F0380168144A01F4E0611143E6
:106F00000160BFF34F8F00BFFDE7124910480860D2
:106F1000F0BD0000E00F00F0403501400DF0ADBACB
:106F200000C007403C050040FCED00E0105600406A
:106F30000404001020C50040E40E0040000400409E
:106F40003C17004004E5014000E401400400FA055C
:106F50000090D0036426002001480068004700002C
:106F60002C25002070B50D4CA078002815D00C48B9
:106F70000188208AFFF744FC04280ED30025094924
:106F8000A570A28A01F59670FFF770FAA08AE082D8
:106F9000A582BDE87040FFF73DBB70BD20220020F8
:106FA000002700204D2800202DE9F041194E70786F
:106FB00000282DD1184D5A204FF00108287085F86F
:106FC0000180A5F12100B16A0724416203E0641E3B
:106FD000A4B2042C04D9281910F8010C0028F6D00A
:106FE000E01EA87021460C48FFF7FAFA010A29555D
:106FF000641CA1B26854491C8FB2002404E0285DCF
:1070000000F048FC641CA4B2BC42F8D386F80180AE
:10701000BDE8F081202200202127002010B5124C6D
:1070200002202061606111A0A06104F17800E0619C
:107030004FF4007020620020A06260620BA1A16486
:10704000E06204F51E71E1641021A065C4E914102A
:10705000E06509A1E01DFFF741FA08A12046FFF70E
:107060003DFA2020A07110BD083B00205465726DD0
:10707000696E616C0000000052545400534547474C
:10708000455200000269C1688A4203D88068401AEC
:10709000104400E0501A401E70472DE9F047C468C4
:1070A0001746894606464FF000083069A04201D9CC
:1070B000051B02E0B168201A0D1AB0686D1E001B96
:1070C000A84200D80546BD4200D33D4670682A4616
:1070D00020444946FFF7CAF9B0687F1B2C44A844F6
:1070E000A944A04200D10024F460002FDDD1404625
:1070F000BDE8F0872DE9F04104468846D4E902074F
:10710000C51BE168606816460844B54206D9414689
:10711000FFF7ACF9B819E060BDE8F0812A464146B6
:10712000FFF7A4F9761B08EB050132466068FFF70C
:107130009DF9E660F0E702E008C8121F08C1002AC6
:10714000FAD170477047002001E001C1121F002AE8
:10715000FBD170470121202803DA81400548014016
:1071600003E0402802DA2038814009B1012070474D
:1071700000207047FC06FFBD082806D228B1012870
:1071800003D0042801D0012070470020704710B5BB
:1071900060B159B102780B785208B2EB530F05D1A8
:1071A0000622401C491CFFF78CF908B1002010BDD5
:1071B000012010BD800701D00020704701207047DA
:1071C000C3688B4206D811440069491E814201D828
:1071D000012070470020704710B5002101220846A9
:1071E00002F038F808B1072818D101220221002046
:1071F00002F030F808B1072810D101220021104612
:1072000002F028F808B1072808D10122022110460F
:1072100002F020F808B1072800D1002010BD0000BE
:1072200000B5ABB0AC216846FFF739F902208DF804
:107230000000012006218DF802008DF80310164988
:1072400005918DF879008DF87A000021ADF81000D5
:1072500020918DF87C008DF87D004FF448602490DB
:1072600044F250608DF87B102191259028210B4825
:107270002291299040F6B831094823912A90694615
:10728000084800F090FE08B100F004F9012105481B
:1072900000F084FE2BB000BD40220020B9DD0200CA
:1072A000A37F0200A82D00202DE9F0474FF6FF78BC
:1072B000424620211D48FFF7EBF81D4D10200446E3
:1072C00068621A4F05F12406404607F0F1FF0021DD
:1072D000B1463160464608E0D9F800104B00491C21
:1072E000C9F80010F85207F0E3FFB04201D0641E65
:1072F000F2D20E48696A08F083F908B100F0CAF8C2
:107300000A48696A07F0E4FE062802D008B100F0D6
:10731000C1F806480321B83800F03DFF002803D02B
:10732000BDE8F04700F0B6B8BDE8F087602E002059
:107330002022002070B58CB015460E4600236C4606
:10734000C3F10F01415CE1545B1C102BF8D30D21FC
:1073500004F11000FFF7A3F80020C0F10F02315C28
:107360002244401C11740328F7D3684646DF0020EE
:10737000C0F10F01214491F820102954401C03282A
:10738000F6D30CB070BD022001F0C6BE01490979E8
:1073900001F070B9B024002070B50024064D06E05D
:1073A0006868012110F8340006F07AF9641C287826
:1073B0008442F5D3002070BD38250020F8B515466D
:1073C0000C460646052A01D20720F8BD06F064FAED
:1073D00018B906F029FA0028F7D1124900224E60A8
:1073E0000C708D60C1E90422C1E906220E4D0DE04A
:1073F00006EBC4002968009181788DF801100078AF
:107400000A4A694606F09EF90028DED1641EE4B2FD
:10741000EED2BDE8F84004480021054A001D00F006
:107420003DB90000382500209C190300C1A70200C7
:10743000319B020072B605F0E1FD00BF05F02CFCA7
:107440000028FBD10D480121008801EB00400CA170
:1074500005F01EFD0D480068C00700D000BEBFF358
:107460004F8F0A48E4380168094A01F4E06111438A
:107470000160BFF34F8F00BFFDE70000B026002082
:10748000466174616C206572726F7200F0ED00E00D
:107490000400FA050EB500210091CDE901106A46FD
:1074A00044F20100FFF7C6FF0EBD10B58268C36845
:1074B000934203D002F0D6FE002010BD052010BD7F
:1074C00029B112B1531E134203D0092070470E2078
:1074D00070470160838000218160C1600846704769
:1074E00010B58268C3689A1A83889A4203D802F05A
:1074F000C3FE002010BD042010BD00002DE9F84F90
:10750000254C8146924660880E46814241D800272C
:107510004FF6FF788DF80070684600F0E5F92278A4
:107520006078A188884201DA401C00E00020C0B2E7
:10753000904204D19DF8000000F0FAF927E0657848
:107540006078884201DA401C00E0002060709DF8FD
:10755000000000F0EDF9454519D0A068B9F1000F21
:1075600040F835A00DD066B16188E068324605FB71
:1075700001004946FEF77AFFA06800EBC50086804F
:1075800002E000EBC50087800020BDE8F88F0420F2
:10759000FBE70920F9E700005825002010B50E4C44
:1075A00003E0401C00E000202070207861788142D8
:1075B00010D022786188E068A36802FB010003EB29
:1075C000C20153F83220898890472078A1888842E8
:1075D000E9DAE6E710BD00005825002030B5CB0001
:1075E00008339DB293074FF0000401D0072030BD4F
:1075F000044B9A602A44DA605C701C705880998051
:10760000002030BD5825002070B5FFF7BDFAFFF708
:10761000A9FCFFF741F9FFF757F9FEF7B7FF1B4B3E
:10762000187B002500B11D73587B20B35D7318488B
:10763000174C4078A4F12804400612D55988A08B35
:10764000FFF7DEF814280CD3BFF34F8F1148016801
:10765000114A01F4E06111430160BFF34F8F00BF95
:10766000FDE7E07838B99988608AFFF7C9F81428EF
:1076700001D30120E070987B00B19D73D87B00B1ED
:10768000DD73187C002800D01D7470BD0027002019
:10769000482200200CED00E00400FA05074B9B781F
:1076A00023B12AB120B10068037C1BB108207047C8
:1076B000072070474174426100207047203300204A
:1076C00070B508F053FC104800240B21047044707E
:1076D0000E4D817014206C602C706C70FFF71CF9DB
:1076E00007211420FFF739F91420FFF720F9084883
:1076F000046007211120FFF730F90548001F0068DA
:10770000A860002070BD0000203300206825002004
:10771000081501402DE9FC47DFF8789099F8023010
:1077200073B368B3052902D20720BDE8FC8743691B
:1077300033B3437C012B25D000270446002588461F
:1077400016468DF80050684600F0CEF801A809F002
:10775000F7FDC8B1012101700F4944600968C0E913
:107760000218C0E904769DF8040089F801009DF82C
:10777000000000F0DDF81420FFF7E4F82846D4E715
:107780000820D2E70F46D8E704259DF8000000F056
:10779000CFF8F3E72033002004150140064989782B
:1077A00039B130B1416921B100210174022109F0E0
:1077B00069BA0820704700002033002070B50A4ED7
:1077C00001460A48B578FFF770FE04464DB1002027
:1077D000B070711C0122C81D04F06CFD08B1FFF7E8
:1077E00059FE204670BD0000E4250020C43500206D
:1077F000F0B5244E89B01F460D00044672603FD09C
:10780000A888296882B22048FFF75AFE002835D19F
:10781000A889A96882B21C481030FFF751FE0028E1
:107820002CD1202219496846FEF720FE6069069097
:10783000207C00B101208DF814008DF81C70607C54
:1078400000B10E208DF81500E0680290A06803904A
:1078500020680190606800900A480D4A6946083027
:1078600004F0F4FC002809D1B0702068401C05D059
:1078700004490122491CC81D04F01CFD09B0F0BDDB
:107880000720FBE7E4250020C4350020D01B0300BF
:10789000910D030010B501461048FFF721FE0400CA
:1078A00019D10F480F4A0178515C19B1001D06F03B
:1078B00075FA02E00C3006F059F960B9084907483A
:1078C0000839FFF7F2FD30B90549012208390448AB
:1078D00004F000FD0446204610BD0000D435002011
:1078E000EC2500201825002030B5EFF3108172B68A
:1078F0000D4A9468012324B10370002900D162B6B7
:1079000030BD93604FF0E023D3F88051074C254001
:107910001560C3F88041D3F8844154605A17C3F806
:10792000842100220270E8E72C340020FC06FFBD11
:107930000B498A68002A11D000280FD1EFF310807C
:1079400072B60B684FF0E022C2F800314B68C2F803
:10795000043100228A60002800D162B6704700001E
:107960002C3400202DE9F041064608680C46411CE5
:107970004FF0A0474FF0010506D005FA00F1C7F817
:107980000815206805F070F86068411C02D00021DD
:1079900005F058F83168A069C1F82405607D227DA2
:1079A00031681043C1F86C05D4E900123068C0F8A2
:1079B0001425C0F80C15207D012815D1A068411CA4
:1079C00002D0002105F03EF8E068411C05D085405A
:1079D000C7F80855E06805F047F8D4E902123068A6
:1079E000C0F80825C0F81015BDE8F0812DE9F04178
:1079F000064608680C46411C4FF0A0474FF00105B1
:107A000006D005FA00F1C7F80815206805F036F829
:107A10006068411C02D0002105F01DF83168A069A2
:107A2000C1F82405607D217D32680843C2F86C05E9
:107A3000D4E900123068C0F80C15C0F81425207D78
:107A4000012815D1A068411C02D0002105F003F8DF
:107A5000E068411C05D08540C7F80855E06805F08E
:107A60000DF8D4E902123068C0F80825C0F81015E6
:107A7000BDE8F08103F0AEBE05F028BD2DE9F0476A
:107A8000074600888EB0804603F010FB824604460D
:107A90002D4800252A460178404600F003FE7879FB
:107AA000400734D501254FF6FF7603AB2A46072160
:107AB000504606F0FDFE010004D0404608F080FC70
:107AC00000252BE0B1463146049803F042FA064601
:107AD00048450FD004460146404603F0D1FA4046DF
:107AE000FFF754FC30B9404608F03CFC4046FFF735
:107AF0004DFC48B122460721504606F04FFF0100D9
:107B000003D0404608F05CFC00254E4506D04046B8
:107B100007F0B2F810B1504603F0B4FA02208DF825
:107B20001800ADF81A807879400701D5012000E0EF
:107B300002208DF820008DF8215006A802F0A8F947
:107B40000EB0BDE8F0870000B024002000B585B07D
:107B500014216846FEF7A3FC0020009002906420E8
:107B60008DF80C009DF80D00012120F00F00401C45
:107B700020F0F00020308DF80D009DF80E008DF8FB
:107B8000041020F00F00401C20F0F00020308DF891
:107B90000E009DF80F00694620F0FF008DF80F00E1
:107BA0009DF8100020F00F00401C20F0F000203065
:107BB0008DF81000044800F07BFC002801D0FFF78E
:107BC00069FC05B000BD0000742D00202DE9F043D4
:107BD0000546407C93B00E460024A0B107949DF862
:107BE0001C0020F00F00401C20F0F00010308DF839
:107BF0001C00707B8DF81D009DF81E0020F0060013
:107C0000801C8DF81E001C216846FEF748FC9DF87C
:107C1000000040F002008DF80000697C11B140F0D6
:107C2000100001E020F010008DF800000194039492
:107C30000494687C00B107A8CDE9050401278DF8FC
:107C4000427042F61920ADF840000D94B07B8DF8DB
:107C50003400F07B8DF835009DF83600142120F0BB
:107C60000600801C20F019008DF83600307B8DF85E
:107C7000440008A8FEF713FC0DF140080DF134098B
:107C8000ADF8287011A8CDE90889ADF82A40ADF803
:107C90002C700C90A888AB1D08AA6946AADF0028A2
:107CA00038D1B06898B38DF8427042F60810ADF83C
:107CB00040000D94307C8DF834009DF8350020F0A4
:107CC000FF008DF835009DF8360020F00600801C7E
:107CD00020F019008DF836000EA8B16801F03CF9CB
:107CE0000646142108A8FEF7DAFBADF828600EA8B6
:107CF000CDE90889ADF82A40ADF82C600C90E888F1
:107D000005F10E0208A9ABDF002803D101E0FFE76F
:107D1000EC81002013B0BDE8F0830000124810B5DC
:107D200041894FF6FE72A1F57F43FF3B05D0807974
:107D300000EB80004006010E00E064210B4800F0DB
:107D400057FB00280FD011280DD013280BD00F2877
:107D500009D0082807D043F20141884203D0BDE88A
:107D60001040FFF797BB10BD20220020742D00208B
:107D70000A4601461046AEDF704770B5150004464E
:107D800009D00020286034B1206820B1A079800794
:107D900003D0072070BD0E2070BD084600F00AFC1D
:107DA000C0B2142804D02179814203D8042070BDC8
:107DB000052070BDE288216800FB021028600020C9
:107DC00070BD2DE9FC47002517880646158090F800
:107DD0002D001446894630B13A462146484600F007
:107DE0008BFC051E09D1B0784FF00C0A18B320881F
:107DF000C846001DB84202D95046BDE8FC87684617
:107E000079DF0028F9D12088032108F800102088A4
:107E10001921401C80B2208008F800102088401CE6
:107E200080B2208000EB0801BDF8000009F0B6F92F
:107E3000218808442080F0780222C8B1218896F970
:107E4000033001F1030C4846BC45D5D84254218883
:107E50004FF0010C491C89B2218000F801C0218833
:107E6000491C89B2218009F801302088401C2080FB
:107E70007068B8B1218890F9003001F1030C4846D0
:107E8000BC45B9D8425421880A22491C89B22180B4
:107E900042542188491C89B2218009F80130208888
:107EA000401C2080308950B1CDE900474B46062266
:107EB000022106F1080009F05BFA051E9DD1308A07
:107EC00050B1CDE900474B460722032106F11000CF
:107ED00009F04EFA051E90D1308B50B1CDE9004724
:107EE0004B461522142106F1180009F041FA051E2F
:107EF00083D1306A30B13B462246494601F0A1FCAD
:107F0000051EDBD1706A30B13B462246494603F07C
:107F1000D6FD051ED2D196F82C0038B13B4622463C
:107F20004946304608F0FAFA051EC7D1307838B114
:107F30003B4622464946304603F046FE051EBDD16B
:107F400028465AE718B504460020ADF8000013464D
:107F50006A46204600F006F8002802D0BDF800006E
:107F6000204418BD70B588B182B10024158803E0A3
:107F7000065D641C3444A4B2A54203D80619767881
:107F80009E4201D08C42F3D38C4201D3002070BDBD
:107F9000A11C1180005D401E80B270BD80F83010C1
:107FA0007047FFF777BA2DE9F0410D00044606D07F
:107FB0002CB195F87A000026012803D006E00E20A7
:107FC000BDE8F08195F89800012829D0D5F8A000E7
:107FD000042825D0D5F89C00042821D04FF00108B2
:107FE000A6702C2205F17801201DFEF73FFA84F8D7
:107FF0003060D5F8A4006063D5F8A800A0634FF600
:10800000FF70A4F8A80004F19400C4F8A400C4F818
:10801000AA60A4F8AE6084F8B060207810B104E0E3
:108020000720CDE7FF2084F8540004F155011F27F5
:10803000C4F89410A4F8987004F198022846FFF749
:10804000C0FE0028BCD115F13C0F0ED004F1740124
:10805000C4F89C10A4F8A07004F1A00205F13C0043
:10806000FFF7AFFE0028ABD103E0C4F89C60A4F892
:10807000A06084F85180208BA4F8480084F83C80EC
:10808000266484F8506060696064454604F13C02EF
:10809000002104F1540072DF002891D125708FE790
:1080A00010B50288102A1BD0112A20D0262A1DD1F3
:1080B000007A0C46012801D0022817D1A0780521AA
:1080C000401CB0FBF1F201FB1201204600F063F806
:1080D00000280BD0A16B002908D0BDE8104008474C
:1080E000C27B012A02D18088A1F8A80010BD0C46ED
:1080F000002184F8B2108088B4F8A8108842F5D125
:1081000020790028F2D10121DFE710B50C460228C2
:1081100001D0032810D1607800280DD000206070B5
:10812000A178204600F037F8002805D0A16B00297F
:1081300002D0BDE81040084710BD90F8B1205AB1F8
:10814000002280F8B1200A6840F8AA2F8A8882802D
:1081500089798171002070470820704710B5044666
:1081600090F8540074DF012084F8B200002084F8F5
:10817000B40084F850000621204602F0A2F800283E
:1081800008D1A178204600F006F810B1A16B01B12A
:108190008847002010BD2DE9F05F044600780F46A7
:1081A00038B1A770002004F085FA012620B166706E
:1081B00007E10820BDE8F09F0025C4F8AA50A4F804
:1081C000AE5084F8B050A07910B1A078012806D044
:1081D000E07968B1A078012801D0022808D1616B4C
:1081E00021B184F8B1600820884701E084F8B150DB
:1081F00004F1AB0100200A5C0AB1304603E0401CE8
:108200000628F8D300204FF002084FF0030B012F8F
:1082100006D0022F0CD0032F0FD0042F15D110E061
:10822000A17929B194F8241011B908B130460DE0B4
:10823000E17911B108B1404608E0207A08B158460A
:1082400004E0607A08B1042000E02846A070616B69
:1082500041B1032801D0042804D1607910B194F809
:10826000B200A0B184F8B35004F13C0018210746D5
:10827000FEF715F904F12C0084F83C60814606F005
:1082800087FE58B194F82C0084F8510008E084F877
:10829000B45084F8B36007208847E5E784F851605C
:1082A00094F8240050B1484606F072FE20B194F8CC
:1082B000280084F8520001E084F8526084F850509D
:1082C000A27804F1AA0104F194094FF0060A052AE4
:1082D00060D2DFE802F078030F223F0084F83160BB
:1082E000C4F8A450C4E9101584F83C808020A4F898
:1082F000480051E084F8318094F82420384612B1C7
:108300000722027001E080F800B0228A8281C4F85E
:10831000A4504160E168B9603EE06069B860208BBC
:10832000B88194F824003D4610B184F83CA001E0E7
:1083300084F83C60204608F0DFFF40B185F81480E7
:108340000421204601F0BDFF20BB05211EE084F87A
:1083500031B01DE0E069B860208CB88194F8240049
:108360003D4610B184F83CA001E084F83C60204612
:1083700008F0C2FF48B185F814800421204601F0BE
:10838000A0FF38B984F831A002E0042184F831104C
:10839000C4F8A490A07878B13A4604F15400D4F817
:1083A000A41072DF00287FF405AF94F8301094F821
:1083B000540073DF0028F6D1616B11B194F83100DD
:1083C00088470020F6E684F83150F5E790F8B3309E
:1083D000009933B1002380F8B3300A4303D0012160
:1083E00002E008207047002180F8B4100020704798
:1083F000F7B594B0174605003CD0287C9DF8541082
:108400000024884252D000264FF0010E0D9615A888
:10841000ADF834E00E90ADF83660E9880DAA4FF65D
:10842000FF70ACDF040026D19DF854002874687CEE
:10843000A0B30F96109611961296E888ADF83C00FE
:10844000BDF83600ADF840000DA811900E981290BE
:10845000A7F57F408DF83EE0FE3805D039460FA8DD
:10846000FFF786FC044621E0684600F09DF80025F1
:108470006F460FE00E2017B0F0BD00BF07EB4506BA
:10848000B08800F0D9F8022803D144B10FA9B08810
:10849000AEDF6D1C0098A842F0D807E005E0B18877
:1084A0000FA8FFF765FC0446F3E708242046E2E73F
:1084B00038B50D46040018D0BDB128682060287971
:1084C0006074FF20207401208DF8020041F60F0037
:1084D000ADF80000221D69460120A8DF002803D165
:1084E00029462046FFF772FB38BD0E2038BD38B54F
:1084F000002924D0002822D00288502A1FD1054606
:10850000487C0C4600281AD0E9886289A81D91424F
:1085100015D14189022912D1216800290FD00C30D0
:1085200000F016FD08B1002000E001208DF80000E9
:10853000A888ADF80200226869462046904738BDF9
:1085400070B5040012D001461C221448FDF78EFFBE
:108550001248134D0560206850B17ADF002806D11B
:108560002068016829604068686005E00E2070BDE1
:108570000B487BDF0028FAD108484FF6FF7114380A
:10858000084A20F8041B0549343901600021FFF72F
:1085900085F80028EBD0032070BD0000402F00209C
:1085A00070240020911203000149496801F02AB9A2
:1085B0005C2F002010B5044600F094F808B1204666
:1085C00010BD142010BD000010B5044600F08AF85C
:1085D000002805D02146BDE81040024803F017BC32
:1085E00010BD00006C2F002070B515460E460446E5
:1085F00008F08EFE002809D0054800EB8400806951
:108600002A463146BDE8704001F09ABE70BD0000B8
:108610005C2F002070B50546002400F063F838B1E7
:108620002946044803F0F3FB08B1022400E00124CA
:10863000204670BD682F002070B50546002400F06C
:1086400051F838B12946044803F0E1FB08B102248F
:1086500000E00124204670BD642F002010B51821D1
:10866000034803F0AFFB182800D0C0B210BD0000D3
:108670005C2F002070B505460C46084608F048FE01
:1086800060B1284600F02EF840B10548294600EBBD
:108690008400BDE87040183003F0B9BB002070BD05
:1086A0005C2F002070B5054614460E46084608F0BB
:1086B0002FFE002812D0284600F014F800280DD014
:1086C0000748294600EB860018301CB1BDE8704011
:1086D00003F0A8BBBDE8704003F059BB70BD0000BB
:1086E0005C2F0020142801D3002070470146014868
:1086F00003F08DBB602F00207CB5054608880C4632
:108700000930904201D90C207CBD68466DDF0028FD
:10871000FAD121880820685420881B21401C80B28F
:10872000208029542088401C80B220802844DDF815
:1087300001100160BDF8051081802088801D80B285
:1087400020809DF80010490800D00121295420887C
:10875000401C208000207CBD7FB5044601208DF8A0
:10876000060041F60A00ADF80400454A01A90120BF
:10877000A8DF00287ED1228804F13C0552B1404890
:108780002B46801C009042F62920616800F056FFBD
:10879000002873D1228952B139482B460A30009003
:1087A00042F62420E16800F049FF002866D1228AC1
:1087B00052B133482B461230009042F625206169B1
:1087C00000F03CFF002859D1228B52B12C482B4697
:1087D0001A30009042F62720E16900F02FFF0028B0
:1087E0004CD1228C52B126482B462230009042F6C2
:1087F0002620616A00F022FF00283FD1228D52B16D
:108800001F482B462A30009042F62820E16A00F0EB
:1088100015FF002832D1216B71B102A808F076F95A
:1088200017482B4632300090082202A942F6232036
:1088300000F004FF002821D1606B58B110492B468D
:108840003A3100910279016842F62A2000F0F6FEE2
:10885000002813D1A16B81B102A806F0DBFE084805
:108860002B4642300090072202A942F6502000F029
:10887000E5FE00E002E0002800D1002004B070BD59
:10888000CE240020F8B5064600883B2841D012DCF3
:10889000244C1028A4F1280513D00027112826D035
:1088A000212807D10097B08869468FDF002801D0C2
:1088B000FEF7F0FDF8BD5628FCD1B088132176DF15
:1088C0002AE0072000F0E8FC08B1FEF7E3FDB188DC
:1088D0006981154803F0FEFB08B1FEF7DBFD607807
:1088E000A97F40F0100061F303006070F8BD0F2114
:1088F0000E48FDF7D4FDEF622F63607820F01F0073
:10890000607027704FF6FF706881112000F0C4FC82
:1089100002E0B088132176DF0028E7D0BDE8F840F8
:10892000FEF7B8BD482200209C2D00201227002011
:1089300010B51E4C0188606810290ED0112933D162
:10894000401E606030D1FEF747FC00282CD0216823
:10895000002929D0BDE81040084710BB00210122A2
:10896000084600F077FC08B1072817D10122022140
:10897000002000F06FFC08B107280FD10122002170
:10898000104600F067FC08B1072807D10122022138
:10899000104600F05FFC20B1072802D0216801B129
:1089A00088476068401C606010BD0000682400209B
:1089B0002DE9F04701883B4E40F2F3194FF6FF7561
:1089C00010291BD011293ED0122954D0502946D14C
:1089D000C188F289841D914241D1618902293ED129
:1089E0008688304602F09EFC050038D004F10C0069
:1089F00000F0AEFAA8B3294630464EE0C17B878826
:108A0000044601292BD1A846284602F08BFC05001C
:108A100017D02F8000202872234843464A46016819
:108A2000C5F80A104068C5F80E0004F1100105F100
:108A30000A0002F043FD6872F08900280FD1294630
:108A40002AE0042013E0808802F06CFC040006D0C9
:108A50006068FEF7A3FE08B107F096FC2580BDE82C
:108A6000F087FFE76868FEF799FE0028F7D0BDE8B9
:108A7000F04707F089BC87880646384602F052FC6A
:108A80000400ECD02B464A4606F1080104F10A0026
:108A900002F014FD607221463846BDE8F04700F050
:108AA00017BF0000402F0020702400202DE9F04F58
:108AB0000746858802883D48012197B08346102AE1
:108AC00009D0112A49D01A2A6CD1387AB1EB101F7B
:108AD00045D2012244E0354C083CA068C0430B90CD
:108AE00061680BA803F0B7F90B990CA800F08AFE97
:108AF0002C220CA96846FDF7B9FC0026E946A046E1
:108B000010E000BF09EB46005FF00004B0F804A0DD
:108B100008EB84005146001D03F039F9641C1D2C3C
:108B2000F6D3761C0098B042ECD8142D05D317B0BC
:108B30000420BDE8F04FFEF7ADBC2946584603F0CF
:108B400071F9294608F1040003F06CF9F87B01285B
:108B500028D016482946001D15E029461AE00022B3
:108B60000221B1EB101F01D2012600E000260F49BF
:108B7000083901F11000041D294682B103F052F9B1
:108B800036B12946204617B0BDE8F04F03F04AB988
:108B90002946204617B0BDE8F04F03F0F8B803F0BF
:108BA000F6F8F5E717B0BDE8F08F0000642F00205D
:108BB00010B504460748007800280AD0204602F085
:108BC000FBF8204607F000FD2046BDE8104001F00C
:108BD000F9BC10BDA0240020F0B50646A3F57F40E7
:108BE00087B017460C461D46FF3832D0ADF804401A
:108BF0006A461946D6F87801FFF7BFF8002824D155
:108C0000009820B3801C0090082C03D822463946D7
:108C1000FDF72CFC00200290039004900590B6F81C
:108C20004E11ADF80C0001A8ADF80810CDE904070D
:108C300001218DF80A1002A92846AEDF002804D1D0
:108C4000BDF80410A14200D00C2007B0F0BD0520F3
:108C5000FBE70820F9E72DE9F0410546887A86B060
:108C60000C460A2805D8207C0A2802D8207E0A282B
:108C700003D9072006B0BDE8F0812068286060684D
:108C80006860A07AA874207C85F87800207E85F83A
:108C9000DE0001278DF80E7041F61200ADF80C00D1
:108CA00005F1080203A93846A8DF0028E2D1002612
:108CB00009E0A06B6A4630F816102889A9DF002861
:108CC000D8D1761CF6B294F83600B042F1D8207AAA
:108CD0004FF0000808B9607A30B104F13C01284631
:108CE00006F01CFD0028C5D12146284602F0E0FA16
:108CF0000028BFD12146284605F0E4FB0028B9D161
:108D0000207E20B3E06910B300261DE0E069CDF8B5
:108D1000108000EBC6039DF8100006EB860140F0C2
:108D20000A008DF81000181D05EB4101CDE9000780
:108D3000E031029133F8022B04A9284606F062FFC5
:108D4000002897D1761CF6B2207EB042DED82146AC
:108D5000284606F0F0FF00288CD1207A90B105F566
:108D6000A770009004F14303082242F6222128460E
:108D700000F0F8F8002899D12146284600F05CF967
:108D8000002893D1607A60B105F5AF70009004F1CE
:108D90004003082242F63321284600F0E3F8002879
:108DA00084D12146284601F074FE002888D104F1C0
:108DB0003E01284601F028FE002894D1E168C5F85C
:108DC0007C116169C5F88011E169C5F8841151E72A
:108DD0002DE9F04786B00546807C0F46DDF83890D7
:108DE0009A461646B8424FD907EB870005EB40007C
:108DF000A9F57F4100F11408FF3943D0ADF80060B8
:108E0000002405AA4946D5F87801FEF7B6FF0028E8
:108E100005D1059810B1133005900AE0052006B081
:108E2000BDE8F08730F834000599641C0844E4B2CA
:108E30000590D5F87C01BC42F4D330F83700B0423D
:108E40001ED3324651460598FDF710FB00200190D5
:108E5000029003900490B8F80010ADF804100121BE
:108E60008DF80610ADF808006846CDE9030A01A99F
:108E70004846AEDF0028D2D1BDF80010B142CED0B6
:108E80000C20CCE70820CAE70720C8E70A460146BD
:108E900010460A88102A05D0502A05D0512A05D13B
:108EA00005F0D4B904F0E2BF05F038BA70472DE9F7
:108EB000F8430D460446DDE9081890F878001E4690
:108EC0001746A84202D20720BDE8F8836A46D4F8C4
:108ED0007801FEF752FF0028F6D1009858B31330FE
:108EE0000090002008E0D4F87C11009A31F830108E
:108EF000401C1144C0B20091A17C8142F3D80020F3
:108F000008E0D4F88011009A31F83010401C114468
:108F1000C0B20091A842F4D3D4F88001B91930F856
:108F20003500884209D300983A4681194046FDF73A
:108F30009DFA0020C8E70520C6E70920C4E770B500
:108F400004460D460846FDF7B5FA2080656070BD01
:108F5000007800F0010070470A780270497841708B
:108F6000022070472DE9F0438FB00024DDF85890BF
:108F7000804607949DF81C000F4620F00F00401C0F
:108F800020F0F00010308DF81C0018788DF81D00CE
:108F90009DF81E001D4620F00600801C8DF81E0066
:108FA00016461C216846FDF77AFA9DF8000040F04D
:108FB00002008DF80000A978090702D040F00800EF
:108FC00001E020F0080040F010008DF8000007A834
:108FD000CDE904400120019403948DF83A000694F1
:108FE000ADF838700D9468788DF83400A8788DF855
:108FF00035009DF83600142120F00600801C20F07A
:10900000110040F008008DF8360008A8FDF747FA77
:109010000EA808900DA8ADF828400990ADF82A4098
:10902000ADF82C600C94B8F808004B4608AA6946C5
:10903000AADF0FB0BDE8F083F0B58FB00E4605464D
:109040001C216846FDF72BFA00249DF800000394CC
:1090500040F00E008DF80000012701948DF8367065
:1090600042F63220049405940694ADF834000C9432
:1090700016F8460F8DF8300070788DF831009DF8A5
:109080003200142120F00600801C20F0110040F076
:1090900008008DF8320007A8FDF701FA0DA8079027
:1090A0000CA8ADF824400890ADF82640ADF8287023
:1090B0000B94288905F5AB7307AA6946AADF0FB0A0
:1090C000F0BD00002DE9FC410646C0074FF0000549
:1090D0000ED0104F00240122385D00950023114668
:1090E000019503F067FC641C022CF4D300F046F8F1
:1090F000B0070DD5074E0024B61C0022305D0323B7
:1091000000951146019503F055FC641C022CF4D324
:10911000BDE8FC815818030007490B5C4FF0A041E3
:10912000D1F804250120984020EA0203C1F808354F
:109130001040C1F80C057047581803000249085C3C
:10914000012103F0B6BC0000581803000249085C76
:10915000002103F0AEBC0000581803000649095C6A
:109160004FF0A040D0F80405C84010F0010000D036
:10917000012080F0010070475818030010B500244A
:109180002046FFF7DBFF641C022CF9D310BD10B59D
:1091900000242046FFF7DAFF641C022CF9D310BD2F
:1091A00010B50246064B4FF0FF3000215C5C944244
:1091B00001D1084610BD491C0229F7D310BD00009B
:1091C0005A1803002DE9F0470D468146FFF7E8FFE6
:1091D0000446022837D2DFF878801C4808F10C06D4
:1091E000A6F1100725B3012D0ED0022D2BD104EBD3
:1091F000440030444578002D25D0F968002922D05C
:109200002846BDE8F047084704EB4401755C0E446E
:10921000717849B10E4A4FF40041521E8068FEF742
:1092200079FA08B987F80390B17808F80410E2E7F2
:109230008068FEF7B3FA04EB4401314418F80400E7
:109240008D78A842D7D0BDE8F08700005C180300F5
:109250005424002070B50023022810D20D4D00EBDD
:109260004004012A02D101290CD00022094E00EB52
:109270004000304461B1012906D0022906D00723FD
:10928000184670BD0E30C2B22A55F9E74270F7E7B2
:109290008270F5E760240020044A01460020127A1B
:1092A000D20702D0084600F04DB870475024002085
:1092B00070B506461E480024C0E90261B00720D5FB
:1092C0000025012211462846FFF7C4FF6D1C044605
:1092D000022D02D2002CF4D013E094B940F2666261
:1092E00002211448FEF76AF804000AD1FEF754F888
:1092F000040006D10F48104A0021001FFEF7CEF9E6
:109300000446F00712D00120FFF7DCFE74B90948CB
:109310000A4A00210C38FEF7C1F9040006D10548BD
:10932000074A01210838FEF7B9F90446204670BD06
:109330005024002068180300C195020045B50200C2
:10934000877302002DE9F05F6A4C054600266078BD
:10935000B34618B184F801B002F0E2F8664F4FF45A
:109360007A694FF4C87A4FF00108182D62D2DFE80D
:1093700005F0AC0C0C31404D62676B746B74BE7DB4
:109380007D7D7D7DACAFB2B5BEBE0020FFF7E6FEB1
:1093900000284FF0000008D0FFF7D0FE022D02D1C8
:1093A0004FF4E16008E0484606E0FFF7CFFE022DEB
:1093B00001D1C82000E05046410CC0034FF4FA72BE
:1093C000801841F10001257052000023FDF70AF8D2
:1093D00001462AE00020FFF7C1FE00284FF0000000
:1093E00004D0FFF7ABFE4FF44870E5E7FFF7AEFEA1
:1093F000DFE70020FFF7B2FE00284FF0000002D0A8
:10940000FFF79CFECFE7FFF7A1FED4E70020FFF7B0
:10941000A5FE00284FF0000002D0FFF78FFE01E00C
:10942000FFF794FE257041F69A1100223868FEF786
:1094300071F9064646E00020FFF76EFE257008E051
:10944000002051E025703DE084F801800120FFF705
:1094500063FE002240F6CD41E8E784F80180012058
:10946000FFF75AFE00224FF48041DFE77868FEF7ED
:1094700095F90646D5F1110000D02EB10220FFF774
:109480005DFE84F802B01DE0012816D980B2C82123
:109490004843C117C90341EA5041C0034FF4FA726F
:1094A000801841F1000152000023FCF79BFF0146A8
:1094B00000227868FEF72EF906460220FFF746FEE6
:1094C00084F802803046BDE8F09F02F029F8B9E741
:1094D00002F026F8B4E702F023F804E002F020F8E6
:1094E0000020FFF733FE0120FFF730FEAAE7FFF769
:1094F0004EFEA7E7502400205C1803002DE9F84336
:109500000546861C00208DF8000090460F464FF05F
:1095100001096846FEF7E8F91B4C20683860D4E979
:109520000001401AA16804F21C47081A0EE001214C
:10953000384602F08AFC02F0A3F90146384602F0F0
:1095400084FCD4E90001401AA168081A401C864234
:10955000EDD8B8F1000F03D0052065F3891002E0C3
:10956000062065F39F50A2682168114004EB810139
:10957000C8602068304420609DF80000FEF7D8F9EC
:109580004846BDE8F8830000E436002030B4826825
:109590000468531C8360A154D0E901128A4202D3AB
:1095A00030BC02F0B4BE30BC70470000034803C8B2
:1095B000814201D10120704700207047E43600202D
:1095C00000780221FFF7FEBD05494FF0FF32082861
:1095D00041F8202002D3084480F84820704700005A
:1095E00054320020F0B54FF0FF3512B100230826A9
:1095F00001E008230C260C4C05E000BF54F8237052
:109600007F1C04D05B1CB342F8D32846F0BD26185B
:109610005DB286F8305044F82310002AF5D1E118E5
:1096200081F84800F1E70000543200200249084464
:1096300090F9300070470000543200202DE9F043CB
:109640008FB01E46DDF8589015460F00804602D1B7
:109650000020FDF71FFF15B90020FDF71BFF1C219F
:109660006846FCF71CFF00249DF80000039440F0BE
:1096700002008DF80000012001948DF8360004945A
:1096800005940694ADF834800C9430788DF8300051
:1096900070788DF831009DF83200142120F006001A
:1096A000801C20F019008DF8320007A8FCF7F7FEA7
:1096B0000DA807900CA808900748ADF82450ADF805
:1096C0002640ADF828500B974B4607AA69460088FC
:1096D000AADF0FB0BDE8F083CE24002070B50446A9
:1096E0004FF6FF750A462846AC4208D14FF4807405
:1096F0002146104605F098FDA04209D070BDFF2C10
:10970000FCD82146104605F082FD08B1204670BD08
:10971000284670BD70B5084C050009D0103421688A
:10972000002907D008682060496828468847F6E77E
:109730000834F4E770BD000040320020054A0121E2
:1097400020B1012805D19170FFF7E4BF51700020CE
:10975000FAE77047403200202DE9F05F2648416863
:10976000F1B3DFF898B00E688146DBF800408768F7
:109770008078E11B21F07F45ED1CB0B9DFF88080D7
:109780004FF48030C8F84403C8F804031120FDF7F3
:10979000C3F81120FDF7CBF84FF0010AC8F800A07C
:1097A0002F2003F075FF89F802A0B54200D235469C
:1097B000124BE8193C3320F07F401860DBF80010B2
:1097C0005A46091B21F07F41001B20F07F40C91C35
:1097D00081420FD9106818602F2003F059FF00E074
:1097E00004E0BDE8F05F1120FDF7ACB8BDE8F05F24
:1097F00006F0BCBBBDE8F09F6825002004150140C1
:109800000010014073B58CB00646002000900D9802
:1098100080B100246D4621460DA802F0F8FA30B15F
:10982000009805EB400084800098401C0090641C68
:10983000142CF0D32C2269463046FCF717FE0EB0EC
:1098400070BD2DE9F04117880646B81D14460D4637
:10985000984202D90C20BDE8F08131880722062900
:109860000AD34FF4486C4FF6FF73614501D9994212
:1098700002D17088062801D21046ECE7604501D974
:109880009842F9D1994203D0984201D08142F3D84D
:109890000520E85520881221401C80B220802954E0
:1098A0002088401C80B220804119308807F076FC67
:1098B0002188084480B220804119708807F06EFC2E
:1098C0002188084420800020C5E7FDF7E3BD0000A3
:1098D00038B54A7A0F4B62B100220A7259690029E1
:1098E00006D001228DF80020ADF8020068468847B6
:1098F00038BD0A7A62B19B684C6802461946204618
:10990000FDF708FF0028F3D0BDE8384006F03CBD65
:109910005B68F1E7402F0020F0B585B016460F4692
:1099200004461D4614220B496846FCF79FFD0A4871
:109930008DF80870ADF80240ADF80A608DF80C5053
:10994000017800222046FEF7ADFE684600F0A0FA3E
:1099500005B0F0BD64190300B0240020F0B587B055
:10996000074600200490ADF810100590ADF81210D5
:109970000190029001AA04A9384690DF060022D087
:1099800003F02CFE114C0346012520883A4605EBD6
:1099900000400F4903F087FABDF8042012B9BDF862
:1099A000060038B12088BDF8063005EB004009A15B
:1099B00003F079FABDF808202AB12088154905EB93
:1099C000004003F069FA07B03046F0BD7C26002065
:1099D000341D030054686520726571756573746584
:1099E000642054582F5258207061636B6574206C4A
:1099F000656E67746820697320746F6F206C6F6E7A
:109A0000672062792025752F2575206F6374657432
:109A1000732E0000801D030030B5044685B0002180
:109A20001B4805F0F4FB00282FD00025204600F04D
:109A300056FF68B1112812D086281BD0A0F54051DE
:109A4000023903D00146204606F0A6FC294607E06D
:109A500005B029462046BDE8304001F0EFBE0121A7
:109A6000204601F0EBFE05B00021BDE8304008487B
:109A700005F001BC142207496846FCF7F7FCADF875
:109A80000240684600F0E0F9E0E705B030BD0000B4
:109A9000792400208C18030010B5FCF7EDFD05F0CB
:109AA0003FFD002803D0BDE81040FDF7F3BC10BD1A
:109AB0007FB50C4610B1012004B070BD207900269E
:109AC00038B141F61D5501281BD0022826D00F20A1
:109AD000F2E70220207102960396E0680190694641
:109AE00001A805F0EDFF50B102988188E18000885F
:109AF0002081BDF80010029806F060F8DCE70A202B
:109B0000DAE70A4B6A460021A01D05F095FF38B13F
:109B1000064918398E61CE610A28CDD12846CBE797
:109B200002488188019806F049F8F5E7A825002049
:109B30002DE9F0470025DFF88C803CE060680021CB
:109B400000EBC506012032789146FCF77CFCD4E995
:109B5000062300EA020701EA030C57EA0C0728D0A3
:109B600082438B434846C4E9062303F053FE327810
:109B70008246914601200021FCF765FCD4E90423CC
:109B800000EA020401EA03074A4650460021FCF7B6
:109B90005AFC44404F403C430BD17078012801D01F
:109BA000012100E00021726881EA0A010AB14846F9
:109BB00090476D1CEDB298F8000044468542BDD335
:109BC000BDE8F0873825002000B593B002208DF85D
:109BD000400041F61510ADF842004EF6EE60ADF8CB
:109BE00044000120ADF8460040216846FCF757FCD0
:109BF0000FA16846FFF7A3F910A80E909DF83C004E
:109C000020F00F00401C20F0F00020308DF83C00C8
:109C10009DF83D0020F0FF008DF83D006846FEF7FE
:109C20009BFD002801D0FDF735FC13B000BD0000FE
:109C3000416E616C6F6720447261676F6E00000057
:109C400010B50021024802F01BF980F3100010BD8E
:109C5000003B00200E4910B50A784C780023A24240
:109C600012D0521CD2B20A70022A00D10B70084ADC
:109C70000B780C3252F8232002608868104420F0E0
:109C80007F408860012010BD0360002010BD0000EF
:109C90006825002013460A460021FFF73DBE00005C
:109CA0002DE9F843104D0F4680461E469146694601
:109CB000286802F040F8040014D01C21FCF7EFFBE8
:109CC00001202071C4F81490380BC4F80080C4E956
:109CD00002606946286802F04FF805F041FE002056
:109CE000BDE8F8830420FBE7401A030010B50378B1
:109CF0000022072B06D2DFE803F005040610202916
:109D000030000A7010BD01230B7003898B8183889A
:109D1000CB81C06888600A7410BD02220A70028973
:109D20008A818288CA81C2688A60807D062802D0C2
:109D30000020087410BD0120FBE703220A70C288CE
:109D40008A810289CA81C068886010BD04230B70B3
:109D5000C0888881CA818A6010BD0520087010BD46
:109D600070B5064D0646002455F8241009B130465A
:109D70008847641C042CF7D370BD000044340020D5
:109D800030B50446006887B00D46806800281FD0B3
:109D900018216846FCF783FB0195A068059020799F
:109DA00010B1012810D107E001208DF800002069D2
:109DB0000290E068039005E002208DF80000E06862
:109DC00000030290606904902068816868468847B3
:109DD00007B030BD70B586B015460C00064619D0E8
:109DE000112C17D0082C15D014216846FCF757FB0E
:109DF000ADF80260304601F059F9ADF804000D2CC1
:109E00000AD0862C1CD007208DF8000002946846EA
:109E100000F04CF806B070BD03208DF8000025B1AD
:109E20002878C00701D0012000E002208DF808004A
:109E300000208DF80C0041F20110ADF80A00E6E7B1
:109E400006208DF80000E2E710B50446408801F0D6
:109E50002DF9A080024801682046BDE8104008475F
:109E6000802400202DE9F04107460024064E074DCE
:109E700005E000BF56F8241038468847641CE8788F
:109E80008442F7DBBDE8F081F4310020A0240020FB
:109E900010B50446408801F009F9A0800248016825
:109EA0002046BDE8104008473819030001490968F9
:109EB000084700008C19030070B586B004461421D1
:109EC0006846FCF7ECFAA0890125A0F54040ADF802
:109ED000040020782A4E062833D2DFE800F032034F
:109EE00003032C48A08900F0D0F930B9E08943F68B
:109EF000FE71A0F54040884223D8A07B8DF8080071
:109F0000207803280FD000208DF80900A068039066
:109F1000606850B109208DF80000606804906846C0
:109F200004F084FD0DE00120EEE708208DF800002C
:109F30008DF81050F3E7A08900F0A7F908B1E08987
:109F400030B17078002801D004F0A0FE06B070BDDA
:109F5000606820B10B208DF800007570DFE70A20E3
:109F60008DF80000BDF8040004F01AFFF5E7132097
:109F70008DF800004FF6FF70ADF80400CFE7000049
:109F80009024002038B504460E480078A8B1A4F506
:109F90007F40FF380FD0684605F014FC78B10521EA
:109FA000017001210171C480684605F019FC05F0BB
:109FB000C9FC002038BD042038BD022038BD08206F
:109FC00038BD0000B02500200C4808B5007888B1E5
:109FD000684605F0F7FB78B106210170684605F088
:109FE000FFFB0748017809B10121017305F0AAFCC4
:109FF000002008BD022008BD082008BDB0250020B3
:10A0000008350020F0B587B014216846FCF747FA00
:10A010002B4C207818B16846FFF7A2FE4EE0201DB9
:10A0200001F010FFB8BB4FF0102041690004026935
:10A0300040694B1C01D100FB02F122480022016162
:10A04000A1F54051C160204902F0F0FA002820D16A
:10A050001F481C238C221D49006801F059FE04F0A2
:10A06000D5FA051E14D0022812D000270126062D8D
:10A0700012D005A805F0A6FB88B106700C2D18D2E9
:10A08000DFE805F0170F170F171617161711131122
:10A090000B2007B0F0BD11E026706760BBE7082019
:10A0A000F7E7077105E0032100E00221017100E0FC
:10A0B000067105A805F094FB05F044FC0020E8E7D4
:10A0C000B025002068260020501A030054340020D8
:10A0D000B819030038B5040014D0694605F0F0FC47
:10A0E000A0B1BDF8000000EB8001094800EB810041
:10A0F000C16849B1A17A39B1C168491EC160002067
:10A10000A07238BD052038BD062038BD0A2038BDF4
:10A11000E03400201FB501A9684605F08DFC04B0AD
:10A1200010BD07B513460A466946002005F084FCB9
:10A130000EBD07B513460A460021684605F07CFCB3
:10A140000EBD20B119B100680860002070470520DD
:10A1500070470000F8B50D46040018D0BDB169463F
:10A1600005F0AEFCA8B1BDF800000B4900EB800083
:10A1700001EB800001210C30666801F066FE2E6064
:10A1800060680C3068600120A0720020F8BD0520D6
:10A19000F8BD0A20F8BD0000E034002018B1032308
:10A1A000002207F01FBA052070470223002207F0A3
:10A1B00019BA12B1022307F015BA05207047000042
:10A1C000084910B50A69042A0AD0074A096942F801
:10A1D000210004480121103001F037FE002010BD9D
:10A1E0000C2010BD902500204434002038B50446D2
:10A1F00009480D46007858B164B16946284607F011
:10A20000EBFA002803D1BDF800102180658038BD2D
:10A21000022038BD052038BDB025002010B5044609
:10A220000E48007898B1A4B12188022913D80C4AAD
:10A2300001EB810002EB800260885289C31C9342CB
:10A2400009D807F0BDFA00202080608010BD0220F0
:10A2500010BD052010BD042010BD0000B025002059
:10A26000E0340020826883881A4003689A5C0A7090
:10A270008168491C81607047C26883881A400368FE
:10A280009954C168491CC160704743F6FE71A0F53E
:10A290004040884201D8012070470020704710B527
:10A2A00004460078182802D1FEF7D8F9207010BDB6
:10A2B00010B504460078182802D1FEF7CFF92070B7
:10A2C00010BD70B50D460446B0F89810D0F8940053
:10A2D0000122FDF737FE00B1057004F13C0204F1E4
:10A2E000940104F1540072DF70BD000070B5134694
:10A2F000002206461546862902D0112902D002E026
:10A30000012200E001250D4C73B1A179FEF7CAF9D5
:10A310002A4661793046FEF7C5F90022A178304619
:10A32000FEF7C0F9002203E0A178FEF7BBF92A4648
:10A3300061783046BDE87040FEF7B4B9B82400201B
:10A34000F7B517460E0011D00098002560B1002423
:10A350002146684601F05BFD18B1A0B23946B0470E
:10A360006D1C641C142CF3D32846FEBD0020FEBDDA
:10A37000406805F047BA00000EB516A19DF8080028
:10A3800020F00F00401C20F0F00010308DF8080085
:10A390000E2202A87CDF08B1FDF77CF840F2C13044
:10A3A00078DF08B1FDF776F80020009001900620D4
:10A3B000ADF800001821ADF804002B20ADF8060020
:10A3C000ADF8021068467ADF002801D0FDF762F888
:10A3D0000EBD0000506964616E204B6579626F614B
:10A3E0007264000070B508B1012070BD194C0025E1
:10A3F000207B08B1257301E000F0A0F82078082840
:10A4000026D2DFE800F02504080C10251420BDE852
:10A41000704000F021B8BDE8704000F07DB8BDE8A4
:10A42000704000F05FB8BDE8704000F03BB8608855
:10A43000084900EB8000283901EB80004068BDE846
:10A44000704004F0C3B86560BDE8704004F0CCB85B
:10A450000F2070BD083500201149F0B48A1C00207F
:10A460000346A1F128050C18A67A4EB1A37200EBA1
:10A47000800405EB8404E66816B9247C012C0AD01C
:10A48000401C80B20228EED30B704B804B60F0BCB6
:10A4900041F61D5070471080F0BC00F03DB8000040
:10A4A000083500200C48418801EB8102A0F1280109
:10A4B00001EB8201CA6852B10521017007480221EF
:10A4C0008180016800230122054802F019B80422A6
:10A4D00002704968F6E7000008350020B825002022
:10A4E0006826002038B50A49084803240B684268EA
:10A4F000898803EB810153880470DB1C00201B0456
:10A5000000909B0B034802F06BF938BD0835002022
:10A51000B825002068260020074910B54888091D85
:10A5200005F01EFB18B1BDE81040FFF7DBBFBDE82A
:10A530001040FFF7B7BF000008350020F0B51F48F6
:10A540001F490125067802248B88A0F12802082ED5
:10A5500019D2DFE806F00418181B222F2F170189E3
:10A56000491C01810021418080F80C1001EB81031E
:10A5700012F8233043B100234418491C89B2A37256
:10A580000229F3D30570F0BD0123F5E74268528834
:10A59000D21C1A448A800470F0BD46880D6806EB10
:10A5A000860602EB860256680E60556013818C8029
:10A5B000062100E007210170F0BD000008350020F1
:10A5C000B825002030B501888488224D85B05029F7
:10A5D00024D0522902D0542931D103E0204601F081
:10A5E000F9F82CE014221C496846FBF73FFFADF850
:10A5F0000240204600F05AFDADF8040000F022F9B8
:10A60000002269792046FEF74DF80022297920467C
:10A61000FEF748F86846FFF717FC10E0017B0129B8
:10A620000DD1817A01290AD10089A0F5245102397E
:10A6300005D10121204601F001F906F01FFE00229C
:10A640000649E878FDF7D0FF05B0BDE8304005F0D9
:10A65000F3BE000078240020B4180300757A0200CD
:10A6600010B50446007800280FD1608801F0B2F8D8
:10A67000608800F081F9002807D004496088012231
:10A680000979BDE81040FEF70DB810BD7824002010
:10A6900010B5124C00202070FDF7E0FFA070FDF710
:10A6A000DDFFE070FDF7DAFF2071FDF7D7FF607185
:10A6B000A17818290FD0E17818290CD02179182910
:10A6C00009D0182807D00121601C04F099FD012051
:10A6D0002070002010BD032010BD00007824002051
:10A6E0007CB50446007808282FD1607A38BB207AE0
:10A6F0004FF6FF7501280DD0072802D0082824D175
:10A700001EE0A08800F0BCFBA8421ED0012101F091
:10A7100095F81AE0A0886A46012104F09FF870B904
:10A720000198007858B1A08800F0AAFBA8420CD08C
:10A73000084901220979FDF7B5FF05F07DFE04E027
:10A7400004480021401C04F096FDBDE87C4006F062
:10A7500095BD00007824002010B504460A484178D1
:10A760002046FDF787FF68B10848002101EB410250
:10A7700000EB82025288A24201D1C8B210BD491C2E
:10A780001429F3D3FF2010BD8A240020D42F0020E9
:10A7900070B5094D094E002404EB440005EB800020
:10A7A00071784088FDF766FF20B1641C142CF3D348
:10A7B000FF2070BDE0B270BDD42F00208A2400209D
:10A7C0002DE9F0418046024601200021FBF73BFEC7
:10A7D0001A4F05460E467868FCF7E0FF00280CD1BA
:10A7E000174CD4E9062110462A4001EA06031A4311
:10A7F00005D0A843B143C4E90601BDE8F081404655
:10A8000003F008F830B1D4E9040128433143C4E926
:10A81000040105E0D4E90410A943B043C4E90410DD
:10A82000D4E9060128433143C4E90601A1687868E8
:10A83000BDE8F0410022FCF76DBF00009C19030049
:10A84000382500201CB5054AD2E90212CDE90012D4
:10A850000022694604F027F81CBD0000CC18030054
:10A8600003484FF6FF71818001210170002070477D
:10A87000842400202DE9FC41804600F017FC0024D0
:10A8800003250127A0F57F412646FF3908D06A46F7
:10A89000082103F0E3FF18B90198841D8688056834
:10A8A00032462B4621464046B1DF042804D0082812
:10A8B00004D00B2808D002E0112000E00020002F77
:10A8C00000D10B20BDE8FC810027A80701D5012598
:10A8D000E6E73443F5D0002426460325E0E72DE9DA
:10A8E000FC41804600F0E2FB0646A0F57F40FF38C1
:10A8F0000ED001252A466D1C0027ADB26B460821FB
:10A90000304603F0D5FF040006D0072C25D025E003
:10A9100043F20200BDE8FC81019903230A1D0B608C
:10A920004046891DB2DF040004D00C2C09D0052C50
:10A9300009D009E032460821104604F02FF80446F9
:10A940000CE0012700E000240821304604F012F852
:10A9500000B10324002FCDD100E00C242046D9E71C
:10A9600004488088A0F57F41FF3901D005F06EBD15
:10A9700070470000842400200EB502A9019100F068
:10A9800095FB6A46012103F069FF08B100200EBD66
:10A99000019800780EBD00002DE9F04107464FF602
:10A9A000FF760A48B3DF10B10320BDE8F081074C01
:10A9B00043F20305A41E324661883846AFDFA84241
:10A9C000F3D16088401C6080F5E7000086240020F9
:10A9D000428800EB82020C328A4201D90220704781
:10A9E0008188A1F57F42FF3A03D0008808B100209A
:10A9F000704701207047884204D20068401C01D093
:10AA00000120704700207047F0B58FB00F46054613
:10AA10001C216846FBF743FD00249DF800000394C9
:10AA200040F004008DF80000012601948DF8366096
:10AA300042F64C20049405940694ADF834000C942E
:10AA400038788DF8300078788DF831009DF8320034
:10AA50008DF8384020F00600801C20F019008DF899
:10AA60003200142107A8FBF71AFD0DA807900CA8C7
:10AA70000890ADF824600EA8ADF82640ADF8286027
:10AA80000B90288905F5B77307AA6946AADF0FB0AE
:10AA9000F0BD70B590B00D4606461C2105A8FBF729
:10AAA000FEFC00249DF81400069440F002008DF88E
:10AAB00014000A9401208DF83E00089442F64A20C2
:10AAC00009940B94ADF83C000D9495F834008DF882
:10AAD000340095F835008DF835009DF836001421C6
:10AAE00020F00600801C20F019008DF8360035F8A3
:10AAF000300F8DF83800000A8DF83900A8788DF8ED
:10AB00003A00E8788DF83B0004256846FBF7C7FC5F
:10AB10000FA800900DA80190ADF808500EA8ADF850
:10AB20000A40ADF80C500490308906F5B3736A46BC
:10AB300005A9AADF10B070BD08B50B4A0A4B127800
:10AB40005B893AB10246084801B044305DF804EB35
:10AB5000FEF742B80093034603480A4600214430FA
:10AB6000FEF736F908BD00002022002070B57048BD
:10AB700092B0002444638463C463046434300F21BE
:10AB8000018084700125C5700179032621F00F0131
:10AB9000491C21F0F00120310171417921F00F01B0
:10ABA000491C21F0F00120314171817921F00F0120
:10ABB000491C21F0F0012031817108300821018009
:10ABC00084700221C170417921F00F01491C21F0EC
:10ABD000F00120314171817921F00F01491C21F0F0
:10ABE000F0012031817148216846FBF758FC51483B
:10ABF0000090514801904E488DF810503430039029
:10AC00000830059064208DF80850ADF824008DF8C8
:10AC100009404A488DF80A500890079440F2011004
:10AC20008DF81840ADF830009DF82C008DF83640B6
:10AC300020F00F00401C20F0F00020308DF82C0098
:10AC40009DF82D008DF8324020F0FF008DF82D008A
:10AC50009DF834008DF8336020F00F00401C20F088
:10AC6000F00020308DF834009DF835000E9420F06F
:10AC7000FF008DF835009DF8430020F00F00401CC8
:10AC800020F0F00020308DF843009DF8440020F0C3
:10AC90000F00401C20F0F00020308DF844009DF89B
:10ACA000450020F0FF008DF845009DF8460020F09B
:10ACB0000F00401C20F0F00020308DF846009DF879
:10ACC000470020F00F00401C20F0F00020308DF8ED
:10ACD00047009DF83C0020F00F00401C20F0F000E1
:10ACE00020308DF83C009DF83D00694620F00F00B3
:10ACF000401C20F0F00020308DF83D009DF83E0013
:10AD000020F0FF008DF83E009DF83F0020F00F007E
:10AD1000401C20F0F00020308DF83F000448443003
:10AD2000FDF799FF002801D0FCF7B4FB12B070BD0D
:10AD3000202200205DE00200A5050300EC23002096
:10AD40003EB5027802230C46B3EB520F17D1B0F890
:10AD50000110ADF80010C1788DF802108188ADF8AF
:10AD6000041080798DF8060002AA01A92046FCF79C
:10AD7000E1FA032202A96846FBF7A3FB08B1002011
:10AD80003EBD01203EBD000010B50C46FFF7E4FCBF
:10AD9000FF280CD0074900EB400001EB8000416820
:10ADA00021600189A180807AA071002010BD05205A
:10ADB00010BD0000D42F002070B5018890B010297C
:10ADC00059D1011D2C226846FBF750FB9DF8040069
:10ADD0004FF6FF76032134466D46B1EB500F2AD073
:10ADE00003F092FE9DF8040040080ED001280CD01C
:10ADF000022820D118E00D99281D1131FCF7C7F960
:10AE000018B100BFBDF82C4015E00CAA0BA9072013
:10AE100003F04EFE0028EED10DE00D99281D491CCF
:10AE2000FFF78EFF0028EDD10CAA0BA9072003F035
:10AE30003FFE0028F1D1BDF80000291D00F012FFEF
:10AE4000B44218D0BDF80000214600F019F9BDF851
:10AE50000000ADF82E000020ADF83040074E8DF810
:10AE60002C000BAD044600BF56F824102846884736
:10AE7000641C022CF8D310B070BD0000E018030071
:10AE8000094A002101EB410332F82330834205D106
:10AE900001EB410002EB800040887047491C1429F7
:10AEA000F0D34FF6FF707047D42F00202DE9F0410A
:10AEB000CEB00D46070019D0C5B10DF1B80850202D
:10AEC000CDE94B80B8216846FBF7E9FA002042A99A
:10AED0004FEA0D06C0EBC00202EB0012324441F80B
:10AEE0002020401C0828F5D300242BE00022114626
:10AEF00010466FDF4EB0BDE8F08150212EA8FBF761
:10AF0000CEFA37F814004CAB4AAA072103F004FE2E
:10AF100005280AD0072808D09DF8C900400806D0A7
:10AF2000012804D043F20220E4E70520E2E7C4EB65
:10AF3000C40000EB04103044172208F10101FBF7B4
:10AF400095FA641CAC42D8D3EAB2002142A86FDF64
:10AF5000D0E73EB50C46054603F0D6FD0BE0BDF844
:10AF60000000A04207D02846029900F02FF810B147
:10AF7000BDF800003EBD01AA6946072003F098FD18
:10AF80000028ECD14FF6FF703EBD000010B50D4C0F
:10AF900018200D4A607000204FF6FF7100EB40034F
:10AFA00002EB8303401C59801428F7D3FDF756FBAE
:10AFB0006070182803D001202070002010BD0320ED
:10AFC00010BD00008A240020D42F00202DE9F0417C
:10AFD0000C46054600F1110701F111061022491C2B
:10AFE000401CFBF76EFA48B9681C00F089FA28B1DA
:10AFF000601C00F085FA08B1012400E0002431460D
:10B000003846FCF7C4F83B780222B2EB530F0CD061
:10B010000321B1EB530F08D03378B2EB530F04D0B8
:10B02000B1EB530F01D0012100E00021084201D112
:10B030008C4302D00120BDE8F0810020FBE70188AD
:10B0400011B9421892780AB101207047491C0829A9
:10B05000F7D30020704710B50C460346FFF7EFFF0B
:10B0600000280AD018882188884205D10822A11C0E
:10B07000981CFBF726FA08B1002010BD012010BD76
:10B0800003F0E2BE70B50446FFF7FAFE054620461F
:10B0900003F0E7FB4FF6FF7104468D4203D014B96D
:10B0A000284603F0D1FE204670BD000010B5FFF722
:10B0B00053FBFF2805D0044900EB400031F8200085
:10B0C00010BD4FF6FF7010BDD42F00203EB50446D2
:10B0D00003F01AFD0EE0019920464631FFF7BBFF51
:10B0E00028B9019920462A31FFF7B5FF10B1BDF804
:10B0F00008003EBD6A4602A9072003F0D9FC0028DB
:10B10000E9D14FF6FF703EBD7CB514460A000A49EE
:10B11000897802D015688D4203D323B11D688D4212
:10B1200001D204207CBDCDE900431346024603480A
:10B1300003F0CEFE7CBD00008A240020C430002035
:10B1400070B50C460646B0B020211848FBF7A7F9A9
:10B15000174800252EB324B384706200314613488B
:10B16000FBF784F9702102A82E95FBF798F900955A
:10B170002EAB02AA21463046019503F0A9FE002815
:10B180000DD11EAA0DF10801C0EBC0030B4442F81B
:10B190002030401C1028F7D3E1B210466EDF30B0EB
:10B1A00070BD8570002108466EDFF8E7C4300020CE
:10B1B0008A24002010B50A4941600A4800F042FE86
:10B1C00058B902F095F907491C238C2208740448E9
:10B1D0008C39001F006800F09BFD002010BD0000AE
:10B1E000441A0300A43500202DE9F0412D4F00251D
:10B1F00018B17D600120BDE8F0810879012258B1C5
:10B20000294E01280CD0274C4FF0020808340228A0
:10B2100021D0032842D128E00A7103F0E5F93BE090
:10B220005FF0000000EB800116F82110022908D021
:10B23000401C80B20228F5D33A707D6041F61D5063
:10B24000D9E700EB800006F8205006EB800040684C
:10B2500003F0BCF920E00D71A4F804800023012262
:10B260001248216801F04CF916E00D71206803F0D6
:10B27000ADF90D4923682831498801EB810206EBBD
:10B280008201D1F804C0C4F800C04B60A3880B81D0
:10B29000A4F8048006F822500028ACD07D600E206F
:10B2A000A9E70000B0250020E03400206826002037
:10B2B0007FB50646887A0D4688B3E86878B30024DF
:10B2C0002AE0E86800EBC403002003909DF80C001E
:10B2D00040F002008DF80C009979090702D040F087
:10B2E000080001E020F0080040F010008DF80C008C
:10B2F00004EB8400191D06EB40000091012214307C
:10B30000CDE9012033F8022B03A9304604F07AFC82
:10B31000002805D1641CE4B2A87AA042D1D800204C
:10B3200004B070BD0146034802888A4200D0002064
:10B33000704700002C2F00202DE9FC5F0E00834693
:10B34000DDE90C47C6F1000098469246814600D4DC
:10B350000846012503E000BF90FBFAF06D1C504544
:10B36000FADAA84500D9454624B1002E01DB78075A
:10B3700000D5641EB80702D5B8F1000F0AD0F8074F
:10B3800008D13CB1A54205D220215846641EFEF7E3
:10B39000FDF8F6E7002E02DA4E462D2102E078078E
:10B3A00003D52B215846FEF7F1F807F003000228D9
:10B3B0000BD1B8F1000F08D13CB1A54205D2302124
:10B3C0005846641EFEF7E2F8F6E7CDE9004743462B
:10B3D00052463146584605F0F7FEBDE8FC9F000096
:10B3E00070B50D46044600684FF4887102F016F9F6
:10B3F0004FF49071206802F011F94FF492712068B7
:10B4000002F00CF94FF4A271206802F007F92068ED
:10B410001249C0F8041320686907000B40B2090EF6
:10B42000002806DA00F00F0000F1E02080F8141D7B
:10B4300003E000F1E02080F8001420680121000BF7
:10B4400040B200F01F0291404009800000F1E0206E
:10B45000C0F88012C0F8001170BD00001003020097
:10B46000024600201268930702D0530702D47047A7
:10B47000500714D502F00300012802D002280CD195
:10B4800005E0C2F383100B68801C184404E002231B
:10B49000086803EB92521044086001207047086866
:10B4A00000EB9253C2F38910401CEEE70248007A89
:10B4B000002800D001207047A4350020F0B5848812
:10B4C000A518944200D82246A41AC288D6189A42D7
:10B4D00000D81346D21A4B880788BB420CD3408849
:10B4E000834209D88888A04206D3A84204D8C888D5
:10B4F000904201D3B04201D90020F0BD0120F0BD3F
:10B500000021425C0AB101207047491C1029F8D380
:10B5100000207047800701D000207047012070474D
:10B52000074810B5807838B100242046FDF706FEA4
:10B53000641C022CF9D310BDBDE81040FDF71EBEFF
:10B54000502400200348017AC90702D00078FDF793
:10B55000F9BE70475024002017210180418000214E
:10B56000017141711B218171C17170472DE9FE4F3D
:10B570002B4D984691460F00824601D000260DE0E3
:10B58000684600F09BFB6A460021504603F0D5F860
:10B590002878009E10B99DF8090098B14A463146B6
:10B5A000504605F06DF90446014600225046FEF76C
:10B5B0009DFE0D2C32D008DC84B3082C2ED00B2C31
:10B5C0000BD12BE00520BDE8FE8F112C10D0862C6E
:10B5D0001AD0A4F54050023820D00325B8F1000F4E
:10B5E00004D0324621465046FEF7F4FB2846EAE7EF
:10B5F0003A4629795046FDF755F84A46E9785046CB
:10B60000FDF750F80025E9E73A4629795046FDF75D
:10B6100049F84A46E9785046FDF744F82546DDE703
:10B62000B82400202DE9F041204F0E46154604466F
:10B630003978FDF71FF8002835D0204603F074F85C
:10B6400050B32046FFF732FD80462046B978FDF71B
:10B6500011F808B1012700E00227204603F00CFB97
:10B660000028404602D0FFF70DFD0DE0A8F57F4110
:10B67000FF3909D0072103F07DF9010004D0052925
:10B6800002D0204604F09CFE2B4632463946204626
:10B69000BDE8F041FEF740B92A4631462046BDE8F4
:10B6A000F041FEF7F7BABDE8F0810000B0240020B9
:10B6B00070B5094D0646E978FCF7DCFF04462979A8
:10B6C0003046FCF7D7FF014622463046BDE87040C1
:10B6D0000123FFF74BBF0000B82400202DE9F047FD
:10B6E000394E002780463D46DFF8E090D6F804A0AA
:10B6F00057E003D00446D0F81C8035E099F80020CC
:10B7000002EB4201521CD2B289F8002009EBC101C0
:10B7100099F80230091D9A4201D189F80050486811
:10B720000A780446012A12D0022A02D0032A3BD109
:10B7300008E005F077FA00B10127257434E00574BC
:10B74000C06900E070680028F9D170602CE0207CAE
:10B7500050BB88686060C868A0600869E06048699C
:10B76000A061F07800B165606268B168184B501A4A
:10B7700020F07F40984202D2A168084406E0881A6F
:10B78000A16820F07F40814202D9081A206000E0C1
:10B79000256065600120A56020742046E56105F004
:10B7A00023FAB8F10000A4D199F8001099F801002B
:10B7B0008142A3D117B97168514502D00120BDE87B
:10B7C000F0870020FBE700006825002020330020E0
:10B7D000FFFF7F0030B585B0054600241421684680
:10B7E000FAF75DFEA5F57F40ADF80250FF3815D0A1
:10B7F0002846FFF73FF898B10B2815D0112811D033
:10B80000A0F54051023903D00146284604F0C4FD9A
:10B8100009482246C1782846FCF744FF05B030BDF0
:10B820000E2002E00124F3E70F208DF800006846A7
:10B83000FEF70AFBECE70000782400200A460249E4
:10B840008978FCF72FBF000078240020F8B5054662
:10B8500000780C46002620420FD100208DF8000011
:10B860006846FCF741F82878204202D1204328702E
:10B8700001269DF80000FCF75BF83046F8BD00009B
:10B880002DE9FF410026234800F0D9FA2148001F86
:10B89000074600F0D4FA204C60680090A56800E0EC
:10B8A00000986946284004EB80000C30FFF7D8FD73
:10B8B0000028F5D101AA009901EA050304EB8303EE
:10B8C000491CDB6842F82030401C00910228F2D36A
:10B8D000019800F0030001280BD0022810D1019834
:10B8E000032101EB90500099BDF80A6001EB900034
:10B8F00005E00198BDF80A60C0F383100844009089
:10B90000384600F099FA08B10098606004B03046FB
:10B91000BDE8F081FC3A0020E43600208AB04FF404
:10B920000041002001F026FB08B1FBF7B3FD01F058
:10B93000A5F9FBF7C5FE08B1FBF7ACFD524A0121A2
:10B940005248FBF7ABFE5148514A0121001DFBF75D
:10B95000A5FE08B1FBF79EFD00210120FDF7A8FC24
:10B9600008B1FBF797FD4949182208316846FAF7F4
:10B970007DFD4848069048494FF48070CDE90701A5
:10B9800009900723454A06A96846FBF731FF08B12D
:10B99000FBF780FD01F00CFC08B1FBF77BFD01F02B
:10B9A0004DFD08B1FBF776FD0024694601200094A7
:10B9B00001F040FC08B1FBF76DFD684601F0BCFCEE
:10B9C00008B1FBF767FD364A0A210820FBF706FE9F
:10B9D00008B1FBF75FFDFEF7CFFC31480021C43012
:10B9E00000F0C3FA08B1FBF755FDFBF719FC2D4831
:10B9F00000902B486946D83000F077FB08B1FBF780
:10BA000049FDFEF7E1F8FCF7A1F8FFF7AFF81C21BC
:10BA10006846FAF744FD4FF42030CDE900404FF47A
:10BA20007020029003208DF80C001F48ADF80E40E6
:10BA30008DF81040CDE905406846FCF781FD08B15E
:10BA4000FBF728FD03F00EFA104C0022241F4FF4E0
:10BA500080316068FBF75EFE08B1FBF71BFD00223A
:10BA60002121A068FBF756FE08B1FBF713FDFBF799
:10BA70001BFC00BFFBF792FD01F00EF90028F9D185
:10BA800001F0AAFBF6E700001D7D02003818030054
:10BA900009760200C12A0020C12B0020610E03009C
:10BAA000C42C00201DD20200CB980200002360F3BA
:10BAB0000F03184661F3174062F31F60704770B5BB
:10BAC000144682880E4605462088111D0144921CAA
:10BAD000994201D8FE2A01D90C2070BD521C325463
